:0C0000000C9455000C9400000C940000BF
:10000C000C9400000C9400000C9400000C94000064
:10001C000C9400000C9482000C9400000C940000D2
:10002C000C9400000C9400000C9400000C94000044
:10003C000C9400000C9400000C9400000C94000034
:10004C000C9400000C9400001027E80364000A00D4
:10005C000100001000011000010000000000000071
:10006C0000004672657175656E63792063616C631F
:10007C00756C61746564203D2025640063616C635C
:10008C00756C6174696E670080C0080004006600BE
:10009C000C00600188000200D40194000000F89468
:1000AC00EE27ECBBF1E0FBBFEBBFE5BF8DE0A2E0C0
:1000BC00BB27ED938A95E9F780E094E0A0E6ED93F9
:1000CC000197E9F7E6E9F0E085919591009761F0E9
:1000DC00A591B59105901590BF01F00105900D9279
:1000EC000197E1F7FB01F0CFEFE5EDBFE4E0EEBFE8
:1000FC00C0E6D1E00C94FA000A921A92FA926A9332
:10010C007A938A939A93AA93BA93EA93FA93EFB752
:10011C00EA93F20131962F01E4E6F0E0E415F505DF
:10012C0009F050C0E0E0EFBDE0E0F0E0FDBDECBD5B
:10013C00E0E2E8BFE1E4EEBDE8B7E5FFFDCF0E94E9
:10014C0064033F01E0E2E8BFE1E4EEBDE8B7E5FFA0
:10015C00FDCF0E9464034F01E0E2E8BFE0E0EEBD9A
:10016C006814790464F586D0F401E619F7095F0187
:10017C000E94B903A0E0B2E18AE790E00E94BE03BE
:10018C00E0936C01F0936D0160936E0170936F01BD
:10019C00E0E7F1E0FA93EA93EEE6F0E0FA93EA9303
:1001AC00E0916C01F0916D010E94B9030E94EB0388
:1001BC0084E00E9417032896A0E7B1E002C0A0E6F5
:1001CC00B1E07BD0EFEFEDBDE0EFECBDE991EFBF1F
:1001DC00F991E991B991A991999189917991699143
:1001EC00F990199009901895A4E178D0EFEFEABB3B
:1001FC00E0E0EBBBEFEFE1BBE0E0E2BBEFBDE1E049
:10020C00EEBDEFEFEDBDE0EFECBDE0E0E5BFE4BF30
:10021C00E4E0E9BF7894FFCFFFCFAA93EBB3EF7084
:10022C00AE2FE881E07FEA2BEBBB8DE08A95F1F7EE
:10023C00DA9A8DE08A95F1F7DA988DE08A95F1F7E4
:10024C007AC0AA93A881E9DFE881E295E883A881C6
:10025C00E4DF85E88A95F1F76EC0AA93E881F0E0B7
:10026C00EC52FE4FE081A981AE0FEBDFD980C88044
:10027C0022960895A2E00E946D03ACE0E2DFA1E0BB
:10028C000E946D03E0E0CE2EDE2E0895AA93A88185
:10029C00AA3021F0E091D801DE1648F0E0E0EA93B4
:1002AC00C394AC2DDADFA881AA3009F444C0D394EE
:1002BC00D89AA881C6DFD8983EC0BA93AA931A934D
:1002CC00A981BA81ED91A983BA831E2FE03019F070
:1002DC00A12FDCDFF5CF188123960895AA93EAB3FA
:1002EC00E06FEABBD29AD09AD19ADA98D898D9987A
:1002FC00E881E093D801E058E093D601E881E0541E
:10030C00E093D701A4E1B0E00E94A7030E9473031D
:10031C000E9473030E947303A0E27FDF88EC90E0DD
:10032C000197F1F7A8E28DDFA4E08BDFA5E889DF68
:10033C00A6E087DF9FDF21960895BA93AA931A93BC
:10034C000A93AA81BB8112960E94E303309759F15C
:10035C00AA81BB8114960E94E3038F01309761F050
:10036C000230E0E01E0798F0F80131978F01AA8166
:10037C00BB811496ED93FC93AA81BB811296ED91EF
:10038C00FD913196FE93EE933197AC81A083AA81B7
:10039C00BB810E94E303FF232AF0ED91FD9131967E
:1003AC00FE93EE9306C0AA81BB81EFEFFFEFED93B6
:1003BC00FC931981088125960895BA93AA932697E0
:1003CC000E94F00310E0AC85BD85E0E0F0E0ED9319
:1003DC00FC93EA89FB893196EA8BFB8B3197E4918C
:1003EC002E2FE03009F415C1E12FE03039F425321D
:1003FC0011F411E002C00E947B030AC1E130A9F4A0
:10040C00253219F40E947B0302C112E040E000E0A7
:10041C002D3211F401E0FCC02B3211F44BE2F8C088
:10042C00203211F440E2F4C002C0E23039F450E062
:10043C0013E0203311F40068EBC003C0E33009F083
:10044C00E7C0203310F02A3308F007C0AAE05A9F07
:10045C00502DE22FE0535E0FDBC0E22FE33649F460
:10046C000E948203E889F989A481AA930E948803D7
:10047C00CEC0E33741F40E9482030E948E030E9497
:10048C004B031E2F0AC0E03761F40E9482030E94C6
:10049C008E030E9457031E2F086002600F7730E016
:1004AC0034C0E43611F0E93611F4046002C0E537CB
:1004BC0031F4E4E5F0E0EE83FF8315E00CC0E835A1
:1004CC0011F4086003C0E83709F0A1C0EEE5F0E0D4
:1004DC00EE83FF8314E002FF14C00E9482030E948B
:1004EC009803AB85AA233AF4EA85FB850E94B503F1
:1004FC00EA87FB874DE2403011F01F5F01C00B7F94
:10050C0004C00E9482030E94980300FD11C01517BD
:10051C0078F407FF08C002FF04C00B7F242F115092
:10052C0001C020E301C020E20E947B035150EFCFB9
:10053C00312F01FF17C03030A1F003FF06C0EE8150
:10054C00FF812591EE83FF8305C0AE81BF812D9184
:10055C00AE83BF830E947B03503009F05150315061
:10056C00EACF4BC020E3EE81FF810E94E703E887CE
:10057C00F987EE81FF813296EE83FF83E885F9855A
:10058C00AA85BB85AE17BF0750F02F5FA885B9852C
:10059C00EA85FB85EA1BFB0BEA87FB87EFCF2A3347
:1005AC0028F003FF02C0295F01C0295D04FD1AC0B9
:1005BC00213320F4A885B985119709F409C0531784
:1005CC0010F000FF01C013C020E207FF0BC020E3B6
:1005DC00006102FF07C00B7F4A930E9488035030D2
:1005EC0009F051500E947B03503009F051503150AA
:1005FC00A885B985129708F0B5CF00FF08C0503018
:10060C0031F05150E0E2EA930E948803F8CF10E0F9
:10061C00E0CEAC85BD850E94E3030E94F70364968F
:10062C000895FF92F82E26970E94F2030E94A003D1
:10063C00309719F4EFEFFFEF23C0DE0116960E94FE
:10064C00B1038D010E94A003EE83FF83E0E0E887F5
:10065C00E987DE011A960E94B1030E94E303FA9324
:10066C00EA931A930A93E3EAF1E0FA93EA93DE0130
:10067C001A96A3DE9F01AE81BF81E0E0EC93F901F5
:10068C000E94F9032A96FF900895BA93AA93A99110
:10069C00B991EE27FF276D91662311F03196FBCFB0
:1006AC000895BA93AA93AA27BB27E991F9910590CB
:1006BC00002011F01196FBCFFD010895E7B5FE2F38
:1006CC00E0E0DF01E6B5F0E0EA0FFB1F08950E94C1
:1006DC002701A3E0B0E00C94A703A0E30E94130150
:1006EC0088EC90E00197F1F708952A93AD85BE85CB
:1006FC00EF85F88909950895E889F9893497E88B8D
:10070C00F98B0895AD85BE85EF85F8890995089517
:10071C00A889B98914960E94E303EE83FF83AE8106
:10072C00BF810895A889B98914960E94E303EA87CA
:10073C00FB870895DE011C960E94B1030E94E3031F
:10074C000895109639F080ED97E00197F1F7A89590
:10075C001197C9F708950024AF0DB01D0895F195B8
:10076C00E195F04008956F2F660F660B762F089574
:10077C003F934F935F93002411244427552730E275
:10078C00AA0FBB1F881F991F001C111C441F551F4B
:10079C000E1A1F0A460B570B28F40E0E1F1E461F6F
:1007AC00571F01C0A1603A9559F7FD01BC01D0015A
:1007BC00CA015F914F913F910895ED91FC91119772
:1007CC0008950590F491E02D08957A936A93FA9325
:1007DC00EA9308955A934A933A932A931A930A9355
:1007EC0008955D814C813B812A811981088108958E
:00000001FF
