:0C0000000C9440000C9400000C940000D4
:10000C000C9400000C9400000C9400000C94000064
:10001C000C9400000C94A0000C946D000C94000047
:10002C000C9400000C9400000C9400000C94000044
:10003C000C9400000C9400000C9400000C94000034
:10004C000C9400000C940000000000000000030061
:10005C0003003F0006005B004F0066006D007D0052
:10006C0007007F006F000A000400540013006001B9
:10007C005E000000F894EE27ECBBF1E0FBBFEBBF99
:10008C00E5BF8DE0A2E0BB27ED938A95E9F780E010
:10009C0094E0A0E6ED930197E9F7E2E7F0E08591B3
:1000AC009591009761F0A591B59105901590BF01C0
:1000BC00F00105900D920197E1F7FB01F0CFEFE510
:1000CC00EDBFE4E0EEBFC0E6D1E00C94E1008ED0D1
:1000DC00F20131962F01E2E0F0E0E415F50539F577
:1000EC00E5B3AFEFEA278E2E9924EFEFE825E5BBB9
:1000FC0095948794082C092819F4E8E0F0E04F0156
:10010C00EFEF8E2685BAF60179D0A0E6B1E07FD06C
:10011C00EC91E2BBF60131976F01EFEFFFEFEC15BD
:10012C00FD0519F4E3E0F0E06F0144245524E0E010
:10013C00E2BF39C05BD0F30131963F01E4E6F0E059
:10014C00E615F70561F5AAE7B1E0ED91FD91319661
:10015C00FE93EE930024A014B004E4F0F5014ED00D
:10016C00EA30A0E0FA0791F4F5013197A4E7B1E089
:10017C004ED0ED91FD913196FE93EE93F501A4E7EF
:10018C00B1E045D0E0E0F0E0ED93FC93F501319760
:10019C005F01E0CFE3E0F0E05F0166247724EFEF4E
:1001AC00EDBDE0EFECBDE991EFBFF991E991B991AB
:1001BC00A99109901895EFEFE1BBE0E0E2BBEFEFFE
:1001CC00E4BBEFEEE5BBE5E0E9BFE3BFE0E0E2BF97
:1001DC00ECBFEFBDE5E0EEBDEFEFEDBDE0EFECBD4C
:1001EC00E0E0E5BFE4BF7894FFCFFFCF0A92AA937B
:1001FC00BA93EA93FA93EFB7EA930895A4E7B1E0C0
:10020C00EE0FFF1FAE0FBF1F0E9412010895EE0FDD
:10021C00FF1FAE0FBF1F0895ED91FC91119708952C
:00000001FF
