:100000000C9435000C9400000C9400000C9400003B
:100010000C9400000C9400000C9400000C94000060
:100020000C9400000C9400000C9400000C94000050
:100030000C9400000C9400000C9400000C94000040
:100040000C9400000C9400000C9400000C94000030
:100050000C94000048656C6C6F20576F726C6400E4
:1000600080C00200600160000000F894EE27ECBB45
:10007000F1E0FBBFEBBFE5BF8DE0A2E0BB27ED9356
:100080008A95E9F780E094E0A0E6ED930197E9F71F
:10009000E2E6F0E085919591009761F0A591B59128
:1000A00005901590BF01F00105900D920197E1F7C1
:1000B000FB01F0CFEFE5EDBFE4E0EEBFC0E6D1E03D
:1000C0000C946200E0E0E4BBE5BBA4E168D0E0E0B2
:1000D000EA93A0E025D0A4E5B0E04ED0F8CFFFCF62
:1000E000AA93E5B3EF70AE2FE881E07FEA2BE5BB82
:1000F0008DE08A95F1F7AA9A8DE08A95F1F7AA9892
:100100008DE08A95F1F774C0AA93A881E9DFE881B0
:10011000E295E883A881E4DF85E88A95F1F768C075
:10012000AA93E881F0E0E05AFE4FE081A981AE0F8A
:10013000EBDF5980488022960895A2E05BD0ACE0C6
:10014000E3DFA1E057D0E0E04E2E5E2E0895AA93A3
:10015000A881AA3011F0571448F0E0E0EA934394E4
:10016000A42DDEDFA881AA3009F442C05394A89AD6
:10017000A881CADFA8983CC0BA93AA931A93E981D0
:10018000FA813196E983FA833197E4911E2FE030AA
:1001900019F0A12FDCDFF3CF188123960895AA93DD
:1001A000E4B3E06FE4BBA29AA09AA19AAA98A89897
:1001B000A9987880E881E058E0936201E881E054F2
:1001C000E0936301A4E1B0E00E94060118D017D0CB
:1001D00016D0A0E285DF88EC90E00197F1F7A8E265
:1001E00093DFA4E091DFA5E88FDFA6E08DDFA5DF38
:1001F0002196089589DFA3E0B0E00C940601A0E306
:100200006FDF88EC90E00197F1F70895109639F0D0
:1002100080ED97E00197F1F7A8951197C9F7089538
:00000001FF
