:040000000C942A0032
:100004000C9400000C9400000C9400000C9400006C
:100014000C9400000C9400000C9400000C9400005C
:100024000C9445000C9400000C9400000C94000007
:100034000C9400000C9400000C9400000C9400003C
:100044000C9400000C9400000C9400000C9400002C
:10005400F894EE27ECBBF1E0FBBFEBBFE5BF8DE00E
:10006400A2E0BB27ED938A95E9F780E094E0A0E64F
:10007400ED930197E9F7EFE5EDBFE4E0EEBFC0E6ED
:10008400D1E00C9495000A92EA93FA93EFB7EA93BD
:10009400ECE0E2BFE1E0F0E0E615F705F1F5042C51
:1000A400052819F5082C092819F4C09AC1981BC011
:1000B400E1E0F0E0E815F90529F4C09AC198C29A84
:1000C400C39813C0E2E0F0E0E815F90529F4C098FC
:1000D400C19AC29AC39809C0E3E0F0E0E815F905B3
:1000E40021F4C098C19AC298C39AE5E0F0E0E415FF
:1000F400F50581F444245524E3E0F0E08E169F06D0
:1001040024F4F40131964F0104C088249924662410
:10011400772403C0F20131962F01E991EFBFF991E1
:10012400E991099018954424552488249924662437
:100134007724E0E0E4BBE3BBEFEFE7BBE0E0E8BB40
:10014400E4E0E3BFECE0E2BFE0E0ECBFEFBDEEBD16
:10015400EDBDECBDE7BDE6BDEBBDEABDE9BDE8BD67
:10016400E2BDE5BDE4BDE3BDE1E0E9BFE0E0E5BF3C
:10017400E4BFEAB9E0E8E8B9E0E0E0BFE6B9EDB928
:10018400E6BF7894999904C000240614070409F082
:1001940005C044245524E1E0F0E03F01F3CFFFCF54
:00000001FF
