:0C0000000C942A000C9400000C940000EA
:10000C000C9400000C9400000C9400000C94000064
:10001C000C9400000C9400000C9445000C9400000F
:10002C000C9400000C9400000C9400000C94000044
:10003C000C9400000C9400000C9400000C94000034
:10004C000C9400000C940000F894EE27ECBBF1E04B
:10005C00FBBFEBBFE5BF8DE0A2E0BB27ED938A951C
:10006C00E9F780E094E0A0E6ED930197E9F7EFE57E
:10007C00EDBFE4E0EEBFC0E6D1E00C948C000A9238
:10008C00EA93FA93EFB7EA93ECE0E2BFE1E0F0E039
:10009C00E615F705A9F5042C0528D1F4082C092838
:1000AC0019F4D89AD99812C06ED029F4D89AD99844
:1000BC00DA9ADB980DC067D029F4D898D99ADA9AD5
:1000CC00DB9806C060D021F4D898D99ADA98DB9ADC
:1000DC00E5E0F0E0E415F50581F444245524E3E073
:1000EC00F0E08E169F0624F4F40131964F0104C003
:1000FC00882499246624772403C0F20131962F01B9
:10010C00E991EFBFF991E991099018954424552490
:10011C008824992466247724E0E0E4BBE3BBEFEF6A
:10012C00EABBE0E0EBBBE4E0E3BFECE0E2BFE0E025
:10013C00ECBFEFBDEEBDEDBDECBDE7BDE6BDEBBD6F
:10014C00EABDE9BDE8BDE2BDE5BDE4BDE3BDE1E06E
:10015C00E9BFE0E0E5BFE4BFEAB9E0E8E8B9E0E018
:10016C00E0BFE6B9EDB9E6BF7894999904C00024D4
:10017C000614070409F005C044245524E1E0F0E01E
:10018C003F01F3CFFFCFE1E0F0E0E815F90508956A
:00000001FF
