:060000000C943F000C947B
:1000060000000C9400000C9400000C9400000C946A
:1000160000000C9400000C9400000C9400000C945A
:100026006C000C9400000C9400000C9400000C94DE
:1000360000000C9400000C9400000C9400000C943A
:1000460000000C9400000C9400000C940000616207
:10005600636465666768696A6B6C6D6E6F707172F2
:10006600737475767778797A80C01A0060015400C7
:1000760002007A016E000000F894EE27ECBBF1E076
:10008600FBBFEBBFE5BF8DE0A2E0BB27ED938A95F2
:10009600E9F780E094E0A0E6ED930197E9F7E0E761
:1000A600F0E085919591009761F0A591B591059045
:1000B6001590BF01F00105900D920197E1F7FB0144
:1000C600F0CFEFE5EDBFE4E0EEBFC0E6D1E00C9483
:1000D600B5000A921A92FA926A937A938A939A933D
:1000E600AA93BA93EA93FA93EFB7EA93F201319699
:1000F6002F01EAE1F0E0AE16BF060CF5E4EFF1E001
:10010600E415F505D9F4A0E6B1E0AA0DBB1DAC9146
:1001160077D0F50131965F01F30131963F01E4E1B5
:10012600F0E0EA15FB0529F466247724E1E0F0E027
:100136004F016A92A82D4DD04424552403C0E0E017
:10014600E3BFE9BFE0E0E2BFE991EFBFF991E991D2
:10015600B991A9919991899179916991F99019909B
:1001660009901895E0E0E4BBE5BB66247724882473
:10017600992444245524AA24BB24E1E0E3BFE0E00B
:10018600E2BFECBFE1E0E9BFA4E150D07894FFCF35
:10019600FFCFAA93E5B3EF70AE2FE881E07FEA2B9D
:1001A600E5BB8DE08A95F1F7AA9A8DE08A95F1F77D
:1001B600AA988DE08A95F1F763C0AA93A881E9DF32
:1001C600E881E295E883A881E4DF85E88A95F1F77E
:1001D60057C0AA93E881F0E0E658FE4FE081A98176
:1001E600AE0FEBDFD980C88022960895A2E04AD0F0
:1001F600ACE0E3DFA1E046D0E0E0CE2EDE2E0895AF
:10020600AA93A881AA3021F0E0917E01DE1640F083
:10021600E0E0EA93C394AC2DDCDFA881AA3081F13B
:10022600D394A89AA881C9DFA8982AC0AA93E4B350
:10023600E06FE4BBA29AA09AA19AAA98A898A99856
:10024600E881E0937E01E058E0937C01E881E05488
:10025600E0937D01A4E1B0E00E94510118D017D0CF
:1002660016D0A0E296DF88EC90E00197F1F7A8E2BD
:10027600A4DFA4E0A2DFA5E8A0DFA6E09EDFB6DF4C
:10028600219608959ADFA3E0B0E00C945101A0E313
:1002960080DF88EC90E00197F1F70895109639F029
:1002A60080ED97E00197F1F7A8951197C9F70895A2
:00000001FF
